:1000000014C100000C94CA090C949F090C94740943
:100010000C9449090C941E090C94F3080C94C8081C
:100020000C949D0833C1000031C100002FC10000B5
:100030002DC100002BC1000029C1000027C1000014
:1000400025C100000C947C0A21C100001FC10000E2
:100050001DC100001BC1000019C100000C94530811
:1000600015C10000EAC70000BFC700000FC10000B3
:100070000DC100000BC1000009C1000007C1000054
:100080000C944F0A03C1000001C10000FFC0000032
:10009000FDC00000FBC00000F9C00000F7C0000078
:1000A000F5C00000F3C000000C94220AEFC000006D
:1000B000EDC00000EBC00000E9C000000C94F509A1
:1000C000E5C00000E3C00000E1C00000DFC00000A8
:1000D000DDC00000DBC00000D9C00000D7C00000B8
:1000E000D5C00000D202D502C402C802CE020C0361
:1000F000D902DD02E302E702EB02F102F502F902A6
:100100000C03FF0203030703000021002400270063
:100110002A002D0030003300010100000401070116
:100120000A0100002200250028002B002E003100CB
:10013000340002010000050108010B0100000A0B58
:1001400002090C0D0E080703040100000000000066
:10015000000000000000000000000000000000009F
:10016000000000000000000012111000000000005C
:10017000000000000000000000000000000000007F
:100180000000000020002300260029002C002F0082
:100190003200000100000301060109010505050503
:1001A000070508080808020202020A0A08080404EF
:1001B000040401010101010101010303030303031D
:1001C0000303040707070C0C0C0C0C0C0C0C0202AC
:1001D000020206060606060606060B0B0B0B0B0BA9
:1001E0000B0B010210202008081020401020408036
:1001F00002010201080402010102040810204080EB
:100200008040201008040201800402018040201078
:1002100008040201080402010102040810204080C1
:100220000102040810204080A90A11241FBECFEF4C
:10023000D1E2DEBFCDBF00E00CBF24E0A0EDB2E014
:1002400001C01D92A432B207E1F712E0A0E0B2E0D3
:10025000ECEDFFE100E00BBF02C007900D92A03D66
:10026000B107D9F711E0C5E1D1E000E006C0219760
:100270000109802FFE010E946F0DC431D10780E07B
:100280000807A9F70E94230B0C94EC0FB9CE8F92AC
:100290009F92AF92BF92CF92DF92EF92FF92CF9355
:1002A000DF93A0911904882311F03A2F01C030E0A8
:1002B00080911A0490E0880F991F8E579E4FC0902E
:1002C0001F04D0902004E0902104F090220440E02C
:1002D00050E0BA01FC01C591D49128812A2323134F
:1002E0000FC04A015B012FEF821A920AA20AB20ADA
:1002F0004C155D056E057F0538F4B501A401EACF04
:10030000342F252FCB0104C030E020E080E090E0C6
:10031000632F722FDF91CF91FF90EF90DF90CF90FE
:10032000BF90AF909F908F900895CF92DF92EF9201
:10033000FF920F931F93CF93DF936C017A018B0190
:10034000C0E0D0E0CE15DF0589F0D8016D918D01B8
:10035000D601ED91FC910190F081E02DC601199537
:10036000892B11F47E0102C02196ECCFC701DF91E9
:10037000CF911F910F91FF90EF90DF90CF90089554
:10038000FC01918D828D981761F0828DDF01A80F9D
:10039000B11D5D968C91928D9F5F9F73928F90E0BF
:1003A00008958FEF9FEF0895FC01918D828D98172E
:1003B00031F0828DE80FF11D858D90E008958FEF6B
:1003C0009FEF0895FC01918D228D892F90E0805C34
:1003D0009F4F821B91098F739927089581EE92E0B8
:1003E000F1DF21E0892B09F420E0822F0895FC0140
:1003F000848DDF01A80FB11DA35ABF4F2C91848DAE
:1004000090E001968F739927848FA689B7892C93E2
:10041000A089B1898C9180648C93938D848D98137D
:1004200006C00288F389E02D80818F7D8083089546
:10043000EF92FF920F931F93CF93DF93EC0181E034
:10044000888F9B8D8C8D981305C0E889F9898081F0
:1004500085FD23C0F62E0B8D10E00F5F1F4F0F732D
:100460001127E02E8C8DE8120BC00FB607FCFACFD7
:10047000E889F989808185FFF5CFCE01B8DFF2CF19
:100480008B8DFE01E80FF11DE35AFF4FF0820B8FB9
:10049000EA89FB898081806207C0EE89FF896083D9
:1004A000E889F98980818064808381E090E0DF9130
:1004B000CF911F910F91FF90EF900895CF93DF930D
:1004C000EC01888D8823C1F0EA89FB89808185FD54
:1004D00005C0A889B9898C9186FD0EC00FB607FCAE
:1004E000F5CF808185FFF2CFA889B9898C9185FFEE
:1004F000EDCFCE017CDFE8CFDF91CF91089580E092
:1005000090E0892B19F06ADF811125C080E090E02E
:10051000892B41F080E090E0892B21F00E940000BF
:1005200081111CC080E090E0892B41F080E090E0D8
:10053000892B21F00E940000811113C080E090E01F
:10054000892BA1F080E090E0892B81F00E940000CF
:1005500081110AC008950E940000D8CF0E940000B7
:10056000E1CF0E940000EACF0C940000089590E0D3
:10057000FC013197E231F10508F04EC08827EE58B2
:10058000FF4F8F4F0C946F0D809180008F7703C0C9
:10059000809180008F7D80938000089580918000FD
:1005A000877FF9CF84B58F7702C084B58F7D84BDF6
:1005B00008958091B0008F7703C08091B0008F7D47
:1005C0008093B0000895809190008F7707C080914C
:1005D00090008F7D03C080919000877F8093900072
:1005E00008958091A0008F7707C08091A0008F7D33
:1005F00003C08091A000877F8093A0000895809120
:1006000020018F7707C0809120018F7D03C08091EA
:100610002001877F8093200108951F93CF93DF935C
:10062000282F30E0F901E45CFE4F8491F901EE518E
:10063000FE4FD491F901E456FE4FC491CC23C1F092
:10064000162F811194DFEC2FF0E0EE0FFF1FEE5D0F
:10065000FE4FA591B4918FB7F894111105C09C91EC
:10066000ED2FE095E92302C0EC91ED2BEC938FBFC9
:10067000DF91CF911F910895CF93DF9390E0FC011C
:10068000EE51FE4F2491FC01E456FE4F84918823E5
:1006900061F190E0880F991FFC01E85FFE4FC59162
:1006A000D491FC01EE5DFE4FA591B491611109C09A
:1006B0009FB7F8948881209582238883EC912E231C
:1006C0000BC0623061F49FB7F8943881822F809517
:1006D00083238883EC912E2B2C939FBF06C08FB76A
:1006E000F894E8812E2B28838FBFDF91CF91089556
:1006F0003FB7F8948091D5029091D602A091D7028D
:10070000B091D80226B5A89B05C02F3F19F00196DD
:10071000A11DB11D3FBFBA2FA92F982F8827820F87
:10072000911DA11DB11DBC01CD0142E0660F771FD7
:10073000881F991F4A95D1F708958F929F92AF9283
:10074000BF92CF92DF92EF92FF926B017C01D0DFDC
:100750004B015C01C114D104E104F104E9F0C8DFEC
:10076000DC01CB0188199909AA09BB09883E93408D
:10077000A105B10578F321E0C21AD108E108F1081A
:1007800088EE880E83E0981EA11CB11CC114D10410
:10079000E104F10421F7DECFFF90EF90DF90CF90DE
:1007A000BF90AF909F908F900895CF92DF92EF927D
:1007B000FF920F931F93CF93DF93CDB7DEB7C05453
:1007C000D1400FB6F894DEBF0FBECDBF2FB7F8945F
:1007D0008091DD029091DE02A091DF02B091E002F3
:1007E0002FBF40911B0450911C0460911D04709117
:1007F0001E048C019D01041B150B260B370BB90140
:10080000A801403D57406105710518F4809123040B
:10081000B1C080931B0490931C04A0931D04B0935B
:100820001E041092160410921504109214041092D3
:1008300013041092120461E080911704EEDE6AEF57
:1008400070E080E090E079DF61E08091170414DFD0
:1008500060E080911704E1DE64E170E080E090E008
:100860006CDFF89461E080911704D7DE8BE990E0AB
:100870000197F1F762E080911704FEDE83E290E0D9
:100880000197F1F780E003DD672B682B692B21F4DA
:100890001092230478943BC081E0F9DC672B682B2D
:1008A000692BB1F38E010F5F1F4F6E012FEBC21A40
:1008B0002EEFD20A780180E0EADCF70160837183D1
:1008C0008283938381E0E3DCF7016483758386830D
:1008D0009783F8E0EF0EF11CEC14FD0461F77894B7
:1008E00020E030E0F8014081518162817381C48051
:1008F000D580E680F780411551056105710529F025
:10090000C114D104E104F10421F41092230480E025
:1009100031C0F90183E0F595E7958A95E1F7EE5E40
:10092000FB4F8081880F4C155D056E057F0508F42F
:10093000816080832F5F3F4F085F1F4F2832310552
:1009400089F62091160430E040911204809113043E
:1009500090E0840F911D40911404840F911D4091EB
:100960001504840F911D99272817390771F681E026
:1009700080932304C05CDE4F0FB6F894DEBF0FBE39
:10098000CDBFDF91CF911F910F91FF90EF90DF903E
:10099000CF900895CF92DF92EF92FF92CF93DF93A3
:1009A000C82F03DF882309F448C0909118049B30B6
:1009B00031F008F442C09551923048F03EC0609149
:1009C000140470E080E090E00E94740E27C0D09183
:1009D00014046D2F6F7770E080E090E00E94760E37
:1009E00020E030E040E853E40E942A0F6B017C01D4
:1009F00040911504642F70E080E090E00E94760E34
:100A00009B01AC01C701B6010E94780D2DEC3CECB6
:100A10004CEC5DE30E942A0FD7FD9058CC2389F05F
:100A200026E636E646EE5FE30E942A0F20E030E03D
:100A300040E052E40E94780D04C060E070E080EC79
:100A40009FE7DF91CF91FF90EF90DF90CF900895D7
:100A50000895CF92DF92EF92FF920F931F93CF935F
:100A6000DF936C018B017A01EC01C053DD4F88816B
:100A700087FF04C0FB011182108224C08CE08C9D92
:100A800090018D9D300D11248881A901480F511DC1
:100A900087FD5A9580910E0490E04817590794F409
:100AA0008881A901480F511D87FD5A95CA01FA0195
:100AB000EE0FFF1F8E0F9F1FFC01E258FC4F80813D
:100AC00086FD19C088818F5F88838CE08C9D9001A2
:100AD0008D9D300D11248881A901480F511D87FD7E
:100AE0005A9580910E0490E048175907B4F4888114
:100AF0008C303CF112C08881280F311D87FD3A955A
:100B0000F901EE0FFF1F2E0F3F1FF901E258FC4FB6
:100B1000808160E08F7381DDD5CFF8018081918184
:100B2000049680349C4918F480E49CE904C0F801E0
:100B3000808191810496F701918380838FEF888370
:100B400044C0F801408151818881B901680F711D4D
:100B500087FD7A95CB01FB01EE0FFF1F8E0F9F1FC4
:100B6000FC01E258FC4F81819281840F951FF701AF
:100B7000918380838881A901480F511D87FD5A9573
:100B8000CA01FA01EE0FFF1F8E0F9F1FFC01E258F2
:100B9000FC4F808186FF19C08881280F311D87FD99
:100BA0003A95F901EE0FFF1F2E0F3F1FF901E25892
:100BB000FC4F808161E08F73DF91CF911F910F9186
:100BC000FF90EF90DF90CF9028CDDF91CF911F91D4
:100BD0000F91FF90EF90DF90CF900895009761F014
:100BE000FC0101900020E9F73197AF01481B590B38
:100BF000BC0181EE92E099CB80E090E00895CF9324
:100C0000DF93ECDFEC0186E292E0E8DF8C0F9D1FC2
:100C1000DF91CF9108952F923F924F925F926F9202
:100C20007F928F929F92AF92BF92CF92DF92EF927C
:100C3000FF920F931F93CF93DF9300D0CDB7DEB712
:100C4000EEE3F1E08491E4EEF1E00491EEE9F1E00D
:100C50001491112399F081118ADCE12FF0E0EE0F5D
:100C6000FF1FEE57FE4FA591B491EC91E02331E0C8
:100C700020E009F430E0832F922F02C080E090E062
:100C80009093010280930002892B09F08AC086E2CA
:100C900092E0A4DF89E292E0B2DFC12CD12C760190
:100CA00068E5262E62E0362E74EB872E912CA12C5F
:100CB000B12C909111048091100420910F0429838C
:100CC000203308F052C08101091B110997FD1395CB
:100CD000000F111F000F111FE8E8F0E0E81BF109F9
:100CE00087FDF3959F01220F331F220F331F3B8394
:100CF0002A832901330F66087708C801012E000CEA
:100D0000AA0BBB0BBC01CD016419750986099709B3
:100D1000A7019601C9D6A50194010E94950F420E24
:100D2000531E641E751E8A819B81481659063CF02D
:100D30005B824A820415150514F41B830A834A81D9
:100D40005B8142505109440F551F2FB7F894F98128
:100D50008F2F90E0FC01EE0FFF1F8E0F9F1FFC01F5
:100D6000E258FC4F528341832FBF6AE070E080E07D
:100D700090E0E3DC61E084E050DC65E070E080E07E
:100D800090E0DBDC60E084E048DC2FEFC21AD20A9E
:100D9000E20AF20A34EBC316D104E104F10409F0CB
:100DA00088CF0F900F900F90DF91CF911F910F91EF
:100DB000FF90EF90DF90CF90BF90AF909F908F907B
:100DC0007F906F905F904F903F902F9008958F92FB
:100DD0009F92AF92BF920F931F93CF93DF93CDB7A4
:100DE000DEB7A1970FB6F894DEBF0FBECDBF19A234
:100DF000423008F44AE08E010F5D1F4F842E912C83
:100E0000A12CB12CA50194010E94BB0FE62FB901C2
:100E1000CA0101501109EA3014F4E05D01C0E95C37
:100E2000D801EC93232B242B252B61F7C801D6DEA8
:100E3000A1960FB6F894DEBF0FBECDBFDF91CF9164
:100E40001F910F91BF90AF909F908F9008954F92F8
:100E50005F926F927F928F929F92AF92BF92CF924A
:100E6000DF92EF92FF926B017C01B42E9B01AC01EB
:100E70000E948D0F882319F086E392E025C0260199
:100E80003701E89477F82FEF3FEF4FE75FE7C301B3
:100E9000B2010E948D0F81110CC02FEF3FEF4FE781
:100EA0005FE7C301B20188D618161CF48AE392E00A
:100EB0000BC02FEF3FEF4FE75FE4C701B601C6D786
:100EC00018167CF48EE392E0FF90EF90DF90CF90C5
:100ED000BF90AF909F908F907F906F905F904F905A
:100EE0007DCE2FEF3FEF4FE75FECC701B60164D631
:100EF00087FDE8CF20E030E0A901C701B6015CD64C
:100F000087FF11C0E091E102F091E2020190F081CF
:100F1000E02D6DE281EE92E019954C01F7FAF09424
:100F2000F7F8F09402C0812C912CA12C60E070E0C5
:100F300080E09FE3AB1439F020E030E040E251E480
:100F40003FD6A394F7CF9B01AC01C701B601D0D522
:100F50002B013C019DD66B017C01C6D69B01AC01E7
:100F6000C301B201C4D52B013C014AE0C701B6015F
:100F70002EDF7C01E80CF91CBB2029F082E492E012
:100F80002DDEE80EF91EDB2CDD20F9F020E030E04C
:100F900040E251E4C301B2015DD72B013C0178D698
:100FA0004B01A12CB12C4AE0C501B40110DFE80EC1
:100FB000F91EC501B40198D69B01AC01C301B20171
:100FC00096D52B013C01DA94DFCFC701FF90EF905B
:100FD000DF90CF90BF90AF909F908F907F906F9059
:100FE0005F904F9008959DD71F920F920FB60F926A
:100FF00011240BB60F922F933F934F935F936F93F0
:101000007F938F939F93AF93BF93EF93FF9381EE63
:1010100092E0EDD9FF91EF91BF91AF919F918F91A8
:101020007F916F915F914F913F912F910F900BBEE8
:101030000F900FBE0F901F9018951F920F920FB632
:101040000F9211240BB60F922F938F939F93EF93D0
:10105000FF93E091F102F091F2028081E091F702BA
:10106000F091F80282FD12C090818091FA028F5FA8
:101070008F732091FB02821751F0E091FA02F0E0A9
:10108000EF51FD4F958F8093FA0201C08081FF914F
:10109000EF919F918F912F910F900BBE0F900FBEEC
:1010A0000F901F9018951F920F920FB60F92112458
:1010B0002F933F938F939F93AF93BF938091DD02C4
:1010C0009091DE02A091DF02B091E0023091D40253
:1010D00023E0230F2D3720F40196A11DB11D05C07B
:1010E00026E8230F0296A11DB11D2093D402809300
:1010F000DD029093DE02A093DF02B093E0028091C4
:10110000D5029091D602A091D702B091D802019653
:10111000A11DB11D8093D5029093D602A093D70252
:10112000B093D802BF91AF919F918F913F912F9132
:101130000F900FBE0F901F9018951F920F920FB631
:101140000F9211240BB60F922F933F934F935F93FF
:101150006F937F938F939F93AF93BF93EF93FF937F
:10116000E0911002F09111021995FF91EF91BF915A
:10117000AF919F918F917F916F915F914F913F912F
:101180002F910F900BBE0F900FBE0F901F901895D0
:101190001F920F920FB60F9211240BB60F922F933E
:1011A0003F934F935F936F937F938F939F93AF93EF
:1011B000BF93EF93FF93E0910E02F0910F02199508
:1011C000FF91EF91BF91AF919F918F917F916F911F
:1011D0005F914F913F912F910F900BBE0F900FBEDB
:1011E0000F901F9018951F920F920FB60F92112417
:1011F0000BB60F922F933F934F935F936F937F9311
:101200008F939F93AF93BF93EF93FF93E09104026B
:10121000F09105021995FF91EF91BF91AF919F91C8
:101220008F917F916F915F914F913F912F910F908F
:101230000BBE0F900FBE0F901F9018951F920F922C
:101240000FB60F9211240BB60F922F933F934F932B
:101250005F936F937F938F939F93AF93BF93EF931E
:10126000FF93E0910202F09103021995FF91EF9133
:10127000BF91AF919F918F917F916F915F914F91AE
:101280003F912F910F900BBE0F900FBE0F901F90AC
:1012900018951F920F920FB60F9211240BB60F9252
:1012A0002F933F934F935F936F937F938F939F936E
:1012B000AF93BF93EF93FF93E0910C02F0910D0277
:1012C0001995FF91EF91BF91AF919F918F917F9170
:1012D0006F915F914F913F912F910F900BBE0F90A7
:1012E0000FBE0F901F9018951F920F920FB60F927E
:1012F00011240BB60F922F933F934F935F936F93ED
:101300007F938F939F93AF93BF93EF93FF93E0915E
:101310000A02F0910B021995FF91EF91BF91AF91E5
:101320009F918F917F916F915F914F913F912F91FD
:101330000F900BBE0F900FBE0F901F9018951F922D
:101340000F920FB60F9211240BB60F922F933F936B
:101350004F935F936F937F938F939F93AF93BF93BD
:10136000EF93FF93E0910802F09109021995FF9124
:10137000EF91BF91AF919F918F917F916F915F910D
:101380004F913F912F910F900BBE0F900FBE0F907A
:101390001F9018951F920F920FB60F9211240BB643
:1013A0000F922F933F934F935F936F937F938F93FE
:1013B0009F93AF93BF93EF93FF93E0910602F09159
:1013C00007021995FF91EF91BF91AF919F918F9176
:1013D0007F916F915F914F913F912F910F900BBE35
:1013E0000F900FBE0F901F9018951F920F920FB67F
:1013F0000F9211240BB60F922F933F934F935F934D
:101400006F937F938F939F93AF93BF93EF93FF93CC
:1014100048E251E064E271E080E090E01ADBFF9185
:10142000EF91BF91AF919F918F917F916F915F915C
:101430004F913F912F910F900BBE0F900FBE0F90C9
:101440001F9018951F920F920FB60F9211240BB692
:101450000F922F933F934F935F936F937F938F934D
:101460009F93AF93BF93EF93FF9348EA50E064EAF2
:1014700070E083E090E0EDDAFF91EF91BF91AF91E2
:101480009F918F917F916F915F914F913F912F919C
:101490000F900BBE0F900FBE0F901F9018951F92CC
:1014A0000F920FB60F9211240BB60F922F933F930A
:1014B0004F935F936F937F938F939F93AF93BF935C
:1014C000EF93FF9348E950E064E970E082E090E038
:1014D000C0DAFF91EF91BF91AF919F918F917F9172
:1014E0006F915F914F913F912F910F900BBE0F9095
:1014F0000FBE0F901F9018951F920F920FB60F926C
:1015000011240BB60F922F933F934F935F936F93DA
:101510007F938F939F93AF93BF93EF93FF9348E88D
:1015200050E064E870E081E090E093DAFF91EF91A1
:10153000BF91AF919F918F917F916F915F914F91EB
:101540003F912F910F900BBE0F900FBE0F901F90E9
:1015500018951092E4021092E30288EE93E0A0E066
:10156000B0E08093E5029093E602A093E702B09387
:10157000E8028AE192E09093E2028093E10285EC36
:1015800090E09093EE028093ED0284EC90E09093D3
:10159000F0028093EF0280EC90E09093F20280934F
:1015A000F10281EC90E09093F4028093F30282ECDC
:1015B00090E09093F6028093F50286EC90E0909391
:1015C000F8028093F7021092FA021092FB02109236
:1015D000FC021092FD0283E08093170486E1809361
:1015E0001804E5EEF1E0E491E0931904EFE9F1E08D
:1015F000E491E0931A0480E89EE3A0E0B0E08093D9
:101600001F0490932004A0932104B093220480919E
:101610000E048033A0F491E0980F90930E04809311
:101620000F0490E0FC01EE0FFF1F8E0F9F1FFC01C7
:10163000E258FC4F88EB9BE09283818308958FEF03
:1016400080930F040895789484B5826084BD84B536
:10165000816084BD85B5826085BD85B5816085BDAD
:1016600080916E00816080936E0010928100809165
:1016700081008260809381008091810081608093ED
:101680008100809180008160809380008091B10012
:1016900084608093B1008091B00081608093B0003D
:1016A000809191008260809391008091910081608F
:1016B0008093910080919000816080939000809150
:1016C000A10082608093A1008091A100816080933D
:1016D000A1008091A00081608093A00080912101F1
:1016E000826080932101809121018160809321019A
:1016F0008091200181608093200180917A00846034
:1017000080937A0080917A00826080937A00809141
:101710007A00816080937A0080917A00806880935B
:101720007A001092C10080910F04803308F051C0FC
:1017300061E089E00E943C0380910F04E82FF0E013
:101740009F01220F331FE20FF31FE258FC4F9081DD
:10175000907C9960908310921004109211046CE0B8
:10176000B2D19CE0899FB001112440E050E09A0181
:10177000260F371FF901EE0FFF1F2E0F3F1FF90134
:10178000E258FC4F908196FD17C04F5F5F4F4C3081
:10179000510569F7813009F0E4C01092800082E0C1
:1017A000809381001092850010928400B19A8091FC
:1017B0006F00826080936F00E0910F04F0E0CF0132
:1017C000880F991FE80FF91FE258FC4F8081806451
:1017D000808360E082E00E943C0361E084E00E943C
:1017E0003C0360E084E00E940D0360E086E30E9419
:1017F0003C038BE096E09093030280930202809179
:101800006A008C7F816080936A00EC9AE091F1021B
:10181000F091F20282E08083E091ED02F091EE021D
:101820001082E091EF02F091F0028FEC8083109231
:10183000F902E091F502F091F60286E08083E091F2
:10184000F302F091F402808180618083E091F302E1
:10185000F091F402808188608083E091F302F0913E
:10186000F402808180688083E091F302F091F402B9
:1018700080818F7D808384E492E0C1D962E0809191
:1018800017040E943C0380E398EFAFEFBFEF809313
:101890001B0490931C04A0931D04B0931E04C0E489
:1018A00083E692E0ACD960ED77E080E090E00E94C2
:1018B0009D030E94D503882381F1809118048B3009
:1018C00019F158F18551823040F56091120470E0B1
:1018D00080E090E009D220E030E040E853E4BAD262
:1018E0006B017C0180911304682F70E080E090E030
:1018F000FDD19B01AC01C701B601FAD02DEC3CEC47
:101900004CEC5DE3A7D206C06091120470E080E069
:1019100090E0EAD14B015C0106C0812C912C80EC57
:10192000A82E8FE7B82E80E035D86B017C0181E0CE
:1019300031D82B013C01A5019401C501B401EDD2C0
:1019400081113BC0A7019601C701B601E6D2811102
:1019500034C0A3019201C301B201DFD2882399F1FF
:101960002CC0823061F4109290008093910010920C
:1019700095001092940088BB809371001DCF833036
:1019800069F41092A00082E08093A1001092A5005B
:101990001092A40089BB809372000ECF81110CCFEE
:1019A0001092200182E08093210110922501109273
:1019B00024018ABB80937300FFCE80EB92E01FD995
:1019C0000E947F026DCF80917B00877F80937B0098
:1019D000C0937C0080917A00806480937A0080912B
:1019E0007A0086FDFCCF809178002091790090E00C
:1019F000922BBC01990F880B990B78D16093D90277
:101A00007093DA028093DB029093DC0280E892E02C
:101A1000E5D86091D9027091DA028091DB02909151
:101A2000DC0242E014DA80E892E0D8D842E0C70154
:101A3000B6010DDA80E892E0D1D842E0C501B401E8
:101A400006DA82E892E0CAD886E292E0C7D820E0BF
:101A500030E048EC51E4C701B601F8D118161CF487
:101A600084E892E0CCD820E030E040EA51E4C701BD
:101A7000B601A2D087FF03C084E992E0C0D820E07D
:101A800030E048EC51E4C701B60196D018164CF48A
:101A900020E030E040EA51E4C701B601D7D187FD2C
:101AA0008FCF8FE992E08BCFDB018F939F9359D239
:101AB000BF91AF91A29F800D911DA39F900DB29FEA
:101AC000900D11240895991B79E004C0991F961771
:101AD00008F0961B881F7A95C9F780950895EE0F38
:101AE000FF1F881F8BBF0790F691E02D1994505867
:101AF000BB27AA270ED070C161D130F066D120F08B
:101B000031F49F3F11F41EF456C10EF4E095E7FB4B
:101B10004CC1E92F72D180F3BA17620773078407AB
:101B2000950718F071F49EF58AC10EF4E0950B2E1E
:101B3000BA2FA02D0B01B90190010C01CA01A0011F
:101B40001124FF27591B99F0593F50F4503E68F17A
:101B50001A16F040A22F232F342F4427585FF3CFBB
:101B6000469537952795A795F0405395C9F77EF48C
:101B70001F16BA0B620B730B840BBAF09150A1F0D5
:101B8000FF0FBB1F661F771F881FC2F70EC0BA0F5B
:101B9000621F731F841F48F4879577956795B795E3
:101BA000F7959E3F08F0B3CF9395880F08F09927DB
:101BB000EE0F979587950895D4D008F481E00895A5
:101BC0000CD00AC102D140F0F9D030F021F45F3FCF
:101BD00019F0EBC0511134C1EEC00FD198F3992325
:101BE000C9F35523B1F3951B550BBB27AA276217E1
:101BF0007307840738F09F5F5F4F220F331F441F26
:101C0000AA1FA9F333D00E2E3AF0E0E830D091505D
:101C10005040E695001CCAF729D0FE2F27D0660F4A
:101C2000771F881FBB1F261737074807AB07B0E889
:101C300009F0BB0B802DBF01FF2793585F4F2AF09F
:101C40009E3F510568F0B1C0FBC05F3FECF3983E8A
:101C5000DCF3869577956795B795F7959F5FC9F7FC
:101C6000880F911D9695879597F90895E1E0660F85
:101C7000771F881FBB1F621773078407BA0720F0FE
:101C8000621B730B840BBA0BEE1F88F7E095089567
:101C9000BCD088F09F5790F0B92F9927B751A0F08A
:101CA000D1F0660F771F881F991F1AF0BA95C9F7F0
:101CB00012C0B13081F0C3D0B1E00895C0C0672F29
:101CC000782F8827B85F39F0B93FCCF386957795A0
:101CD0006795B395D9F73EF4909580957095619589
:101CE0007F4F8F4F9F4F0895E89409C097FB3EF4B4
:101CF00090958095709561957F4F8F4F9F4F992359
:101D0000A9F0F92F96E9BB279395F69587957795D6
:101D10006795B795F111F8CFFAF4BB0F11F460FF96
:101D20001BC06F5F7F4F8F4F9F4F16C0882311F0EE
:101D300096E911C0772321F09EE8872F762F05C002
:101D4000662371F096E8862F70E060E02AF09A959D
:101D5000660F771F881FDAF7880F9695879597F992
:101D60000895990F0008550FAA0BE0E8FEEF16162C
:101D70001706E807F907C0F012161306E407F5077F
:101D800098F0621B730B840B950B39F40A2661F0F3
:101D9000232B242B252B21F408950A2609F4A14096
:101DA000A6958FEF811D811D089597F99F6780E8A3
:101DB00070E060E008959FEF80EC089500240A949D
:101DC0001616170618060906089500240A94121616
:101DD0001306140605060895092E0394000C11F449
:101DE000882352F0BB0F40F4BF2B11F460FF04C0F6
:101DF0006F5F7F4F8F4F9F4F089557FD9058440F4F
:101E0000551F59F05F3F71F04795880F97FB991F59
:101E100061F09F3F79F08795089512161306140616
:101E2000551FF2CF4695F1DF08C0161617061806A3
:101E3000991FF1CF86957105610508940895E8947E
:101E4000BB2766277727CB0197F908958ADF08F427
:101E50008FEF08950BD0C0CFB1DF28F0B6DF18F0B8
:101E6000952309F0A2CFA7CF1124EACFC6DFA0F3B4
:101E7000959FD1F3950F50E0551F629FF001729F1F
:101E8000BB27F00DB11D639FAA27F00DB11DAA1F3E
:101E9000649F6627B00DA11D661F829F2227B00D8B
:101EA000A11D621F739FB00DA11D621F839FA00D16
:101EB000611D221F749F3327A00D611D231F849F66
:101EC000600D211D822F762F6A2F11249F575040BD
:101ED0008AF0E1F088234AF0EE0FFF1FBB1F661F58
:101EE000771F881F91505040A9F79E3F510570F011
:101EF0005CCFA6CF5F3FECF3983EDCF386957795F9
:101F00006795B795F795E7959F5FC1F7FE2B880F0B
:101F1000911D9695879597F9089523DF880B990B66
:101F2000089581E090E0F89457C0052E97FB16F4D1
:101F300000940FD057FD05D01ED007FC02D046F408
:101F400008C050954095309521953F4F4F4F5F4FBA
:101F5000089590958095709561957F4F8F4F9F4F15
:101F600008952BD0A59F900DB49F900DA49F800D38
:101F7000911D11240895A1E21A2EAA1BBB1BFD017D
:101F80000DC0AA1FBB1FEE1FFF1FA217B307E40758
:101F9000F50720F0A21BB30BE40BF50B661F771FB0
:101FA000881F991F1A9469F7609570958095909590
:101FB0009B01AC01BD01CF010895A29FB001B39F69
:101FC000C001A39F700D811D1124911DB29F700D42
:0C1FD000811D1124911D0895F894FFCF8D
:101FDC0001002805280528052805280528052805B9
:101FEC002805010000000000000018029501E20124
:101FFC00C001D4015E020D0A004F70656E696E67F8
:10200C0020446F6F72006E616E00696E66006F76B1
:10201C0066002E0054454D502048554D49444954B6
:10202C005920414E44204C494748542053454E5367
:10203C004F5200444154413A20094C4947485420DE
:10204C000954454D50200948554D494449545900AF
:10205C000900250049742773205265616C6C792046
:10206C00486F74004665656C7320436F6C64005454
:10207C0068696E6773204C6F6F6B20436F6F6C00D9
:10208C004661696C656420746F20726561642066BA
:10209C00726F6D204448542073656E736F7221000B
:00000001FF
